:1000000010C017C016C015C014C013C012C011C054
:1000100010C00FC00EC00DC00CC00BC00AC009C07C
:1000200008C011241FBECFE5D2E0DEBFCDBF5FD038
:100030006DC0E6CFCF93DF93CDB7DEB700008EE281
:1000400090E0FC018081882F90E080749927892BB3
:10005000B1F300000000DF91CF910895CF93DF93BB
:10006000CDB7DEB7000089E390E0FC0180818823F2
:10007000D4F700000000DF91CF910895CF93DF9374
:10008000CDB7DEB78DE290E0FC0120818DE290E0FB
:100090002861FC0120838AE390E020E2FC012083B8
:1000A0008FE290E0FC0110820000DF91CF91089573
:1000B000CF93DF9300D0CDB7DEB789836A838A817F
:1000C00081958F70282F20648EE290E0FC012083C0
:1000D0008FE290E02981FC012083ACDF8FE290E089
:1000E000FC0180810F900F90DF91CF910895CF9305
:1000F000DF930F92CDB7DEB7C1DFB0DF68E08CECE5
:10010000D7DF898368E08981D3DFF7CFF894FFCF09
:00000001FF
