:1000000010C01FC030C01DC01CC01BC01AC019C00A
:1000100018C017C016C015C014C013C012C011C03C
:100020001CC011241FBECFE5D2E0DEBFCDBF20E053
:10003000A0E6B0E001C01D92A236B207E1F720D0E1
:1000400030C0DECF90E49EB98FB98EB1807F8860DA
:100050008EB9769BFECF8FB108958F9381E0809308
:1000600061008F9118958F938FB78F9389B3881FF5
:100070008827881F809360008F918FBF8F9118957C
:10008000F8948DB188618DB980E28ABB1FB87894ED
:10009000CF9BFECF8CECD6DF86EDD4DF81E090E005
:0600A0000895F894FFCF63
:00000001FF
